{
    "abi": [
        {
            "type": "function",
            "name": "data",
            "inputs": [],
            "outputs": [
                {
                    "name": "size",
                    "type": "uint256",
                    "internalType": "uint256"
                },
                {
                    "name": "depth",
                    "type": "uint256",
                    "internalType": "uint256"
                }
            ],
            "stateMutability": "view"
        },
        {
            "type": "function",
            "name": "has",
            "inputs": [
                {
                    "name": "leaf",
                    "type": "uint256",
                    "internalType": "uint256"
                }
            ],
            "outputs": [
                {
                    "name": "",
                    "type": "bool",
                    "internalType": "bool"
                }
            ],
            "stateMutability": "view"
        },
        {
            "type": "function",
            "name": "indexOf",
            "inputs": [
                {
                    "name": "leaf",
                    "type": "uint256",
                    "internalType": "uint256"
                }
            ],
            "outputs": [
                {
                    "name": "",
                    "type": "uint256",
                    "internalType": "uint256"
                }
            ],
            "stateMutability": "view"
        },
        {
            "type": "function",
            "name": "insert",
            "inputs": [
                {
                    "name": "leaf",
                    "type": "uint256",
                    "internalType": "uint256"
                }
            ],
            "outputs": [],
            "stateMutability": "nonpayable"
        },
        {
            "type": "function",
            "name": "insertMany",
            "inputs": [
                {
                    "name": "leaves",
                    "type": "uint256[]",
                    "internalType": "uint256[]"
                }
            ],
            "outputs": [],
            "stateMutability": "nonpayable"
        },
        {
            "type": "function",
            "name": "remove",
            "inputs": [
                {
                    "name": "leaf",
                    "type": "uint256",
                    "internalType": "uint256"
                },
                {
                    "name": "siblingNodes",
                    "type": "uint256[]",
                    "internalType": "uint256[]"
                }
            ],
            "outputs": [],
            "stateMutability": "nonpayable"
        },
        {
            "type": "function",
            "name": "root",
            "inputs": [],
            "outputs": [
                {
                    "name": "",
                    "type": "uint256",
                    "internalType": "uint256"
                }
            ],
            "stateMutability": "view"
        },
        {
            "type": "function",
            "name": "update",
            "inputs": [
                {
                    "name": "oldLeaf",
                    "type": "uint256",
                    "internalType": "uint256"
                },
                {
                    "name": "newLeaf",
                    "type": "uint256",
                    "internalType": "uint256"
                },
                {
                    "name": "siblingNodes",
                    "type": "uint256[]",
                    "internalType": "uint256[]"
                }
            ],
            "outputs": [],
            "stateMutability": "nonpayable"
        }
    ],
    "bytecode": {
        "object": "0x6080604052348015600f57600080fd5b506107498061001f6000396000f3fe608060405234801561001057600080fd5b50600436106100885760003560e01c8063a4e4725d1161005b578063a4e4725d146100fe578063cccf7a8e14610111578063ebf0c71714610134578063f6b8a1141461013c57600080fd5b80633d50a4861461008d57806373d4a13a146100a257806390b5561d146100ca57806391ac7e65146100dd575b600080fd5b6100a061009b366004610527565b61014f565b005b6000546001546100b0919082565b604080519283526020830191909152015b60405180910390f35b6100a06100d8366004610573565b6101d4565b6100f06100eb366004610573565b610253565b6040519081526020016100c1565b6100a061010c36600461058c565b6102d7565b61012461011f366004610573565b61035f565b60405190151581526020016100c1565b6100f06103dd565b6100a061014a3660046105df565b610459565b604051636de6e14760e11b815273__$45477943fbd49e251ac2e0bba445ca6b85$__9063dbcdc28e9061018d90600090879087908790600401610653565b602060405180830381865af41580156101aa573d6000803e3d6000fd5b505050506040513d601f19601f820116820180604052508101906101ce919061067d565b50505050565b604051632f85497160e01b8152600060048201526024810182905273__$45477943fbd49e251ac2e0bba445ca6b85$__90632f85497190604401602060405180830381865af415801561022b573d6000803e3d6000fd5b505050506040513d601f19601f8201168201806040525081019061024f919061067d565b5050565b6040516347263d7760e11b8152600060048201819052602482018390529073__$45477943fbd49e251ac2e0bba445ca6b85$__90638e4c7aee90604401602060405180830381865af41580156102ad573d6000803e3d6000fd5b505050506040513d601f19601f820116820180604052508101906102d1919061067d565b92915050565b60405163124ae75160e31b815273__$45477943fbd49e251ac2e0bba445ca6b85$__906392573a8890610317906000908890889088908890600401610696565b602060405180830381865af4158015610334573d6000803e3d6000fd5b505050506040513d601f19601f82011682018060405250810190610358919061067d565b5050505050565b60405163bc167a3160e01b8152600060048201819052602482018390529073__$45477943fbd49e251ac2e0bba445ca6b85$__9063bc167a3190604401602060405180830381865af41580156103b9573d6000803e3d6000fd5b505050506040513d601f19601f820116820180604052508101906102d191906106c7565b604051637a3e5e1d60e11b81526000600482018190529073__$45477943fbd49e251ac2e0bba445ca6b85$__9063f47cbc3a90602401602060405180830381865af4158015610430573d6000803e3d6000fd5b505050506040513d601f19601f82011682018060405250810190610454919061067d565b905090565b604051630649a08560e01b815273__$45477943fbd49e251ac2e0bba445ca6b85$__90630649a0859061049590600090869086906004016106f0565b602060405180830381865af41580156104b2573d6000803e3d6000fd5b505050506040513d601f19601f820116820180604052508101906104d6919061067d565b505050565b60008083601f8401126104ed57600080fd5b50813567ffffffffffffffff81111561050557600080fd5b6020830191508360208260051b850101111561052057600080fd5b9250929050565b60008060006040848603121561053c57600080fd5b83359250602084013567ffffffffffffffff81111561055a57600080fd5b610566868287016104db565b9497909650939450505050565b60006020828403121561058557600080fd5b5035919050565b600080600080606085870312156105a257600080fd5b8435935060208501359250604085013567ffffffffffffffff8111156105c757600080fd5b6105d3878288016104db565b95989497509550505050565b600080602083850312156105f257600080fd5b823567ffffffffffffffff81111561060957600080fd5b610615858286016104db565b90969095509350505050565b81835260006001600160fb1b0383111561063a57600080fd5b8260051b80836020870137939093016020019392505050565b848152836020820152606060408201526000610673606083018486610621565b9695505050505050565b60006020828403121561068f57600080fd5b5051919050565b8581528460208201528360408201526080606082015260006106bc608083018486610621565b979650505050505050565b6000602082840312156106d957600080fd5b815180151581146106e957600080fd5b9392505050565b83815260406020820152600061070a604083018486610621565b9594505050505056fea2646970667358221220743b129a8354a88ccb94d2e889fc90a0fb91b42be43ddfde1c76f9510133081d64736f6c634300081a0033",
        "linkReferences": {
            "src/LeanIMT.sol": {
                "LeanIMT": [
                    {
                        "start": 381,
                        "length": 20
                    },
                    {
                        "start": 528,
                        "length": 20
                    },
                    {
                        "start": 658,
                        "length": 20
                    },
                    {
                        "start": 773,
                        "length": 20
                    },
                    {
                        "start": 926,
                        "length": 20
                    },
                    {
                        "start": 1045,
                        "length": 20
                    },
                    {
                        "start": 1159,
                        "length": 20
                    }
                ]
            }
        }
    },
    "methodIdentifiers": {
        "data()": "73d4a13a",
        "has(uint256)": "cccf7a8e",
        "indexOf(uint256)": "91ac7e65",
        "insert(uint256)": "90b5561d",
        "insertMany(uint256[])": "f6b8a114",
        "remove(uint256,uint256[])": "3d50a486",
        "root()": "ebf0c717",
        "update(uint256,uint256,uint256[])": "a4e4725d"
    },
    "id": 4
}