{"abi":[{"type":"function","name":"data","inputs":[],"outputs":[{"name":"size","type":"uint256","internalType":"uint256"},{"name":"depth","type":"uint256","internalType":"uint256"}],"stateMutability":"view"},{"type":"function","name":"has","inputs":[{"name":"leaf","type":"uint256","internalType":"uint256"}],"outputs":[{"name":"","type":"bool","internalType":"bool"}],"stateMutability":"view"},{"type":"function","name":"indexOf","inputs":[{"name":"leaf","type":"uint256","internalType":"uint256"}],"outputs":[{"name":"","type":"uint256","internalType":"uint256"}],"stateMutability":"view"},{"type":"function","name":"insert","inputs":[{"name":"leaf","type":"uint256","internalType":"uint256"}],"outputs":[],"stateMutability":"nonpayable"},{"type":"function","name":"insertMany","inputs":[{"name":"leaves","type":"uint256[]","internalType":"uint256[]"}],"outputs":[],"stateMutability":"nonpayable"},{"type":"function","name":"remove","inputs":[{"name":"leaf","type":"uint256","internalType":"uint256"},{"name":"siblingNodes","type":"uint256[]","internalType":"uint256[]"}],"outputs":[],"stateMutability":"nonpayable"},{"type":"function","name":"root","inputs":[],"outputs":[{"name":"","type":"uint256","internalType":"uint256"}],"stateMutability":"view"},{"type":"function","name":"update","inputs":[{"name":"oldLeaf","type":"uint256","internalType":"uint256"},{"name":"newLeaf","type":"uint256","internalType":"uint256"},{"name":"siblingNodes","type":"uint256[]","internalType":"uint256[]"}],"outputs":[],"stateMutability":"nonpayable"}],"bytecode":{"object":"0x6080604052348015600f57600080fd5b50610a248061001f6000396000f3fe608060405234801561001057600080fd5b50600436106100885760003560e01c8063a4e4725d1161005b578063a4e4725d14610114578063cccf7a8e14610130578063ebf0c71714610160578063f6b8a1141461017e57610088565b80633d50a4861461008d57806373d4a13a146100a957806390b5561d146100c857806391ac7e65146100e4575b600080fd5b6100a760048036038101906100a291906105e7565b61019a565b005b6100b161021f565b6040516100bf929190610656565b60405180910390f35b6100e260048036038101906100dd919061067f565b610231565b005b6100fe60048036038101906100f9919061067f565b6102b0565b60405161010b91906106ac565b60405180910390f35b61012e600480360381019061012991906106c7565b610334565b005b61014a6004803603810190610145919061067f565b6103bc565b6040516101579190610756565b60405180910390f35b610168610440565b60405161017591906106ac565b60405180910390f35b61019860048036038101906101939190610771565b6104c0565b005b73__$45477943fbd49e251ac2e0bba445ca6b85$__63dbcdc28e60008585856040518563ffffffff1660e01b81526004016101d8949392919061084f565b602060405180830381865af41580156101f5573d6000803e3d6000fd5b505050506040513d601f19601f8201168201806040525081019061021991906108a4565b50505050565b60008060000154908060010154905082565b73__$45477943fbd49e251ac2e0bba445ca6b85$__632f8549716000836040518363ffffffff1660e01b815260040161026b9291906108d1565b602060405180830381865af4158015610288573d6000803e3d6000fd5b505050506040513d601f19601f820116820180604052508101906102ac91906108a4565b5050565b600073__$45477943fbd49e251ac2e0bba445ca6b85$__638e4c7aee6000846040518363ffffffff1660e01b81526004016102ec9291906108d1565b602060405180830381865af4158015610309573d6000803e3d6000fd5b505050506040513d601f19601f8201168201806040525081019061032d91906108a4565b9050919050565b73__$45477943fbd49e251ac2e0bba445ca6b85$__6392573a886000868686866040518663ffffffff1660e01b81526004016103749594939291906108fa565b602060405180830381865af4158015610391573d6000803e3d6000fd5b505050506040513d601f19601f820116820180604052508101906103b591906108a4565b5050505050565b600073__$45477943fbd49e251ac2e0bba445ca6b85$__63bc167a316000846040518363ffffffff1660e01b81526004016103f89291906108d1565b602060405180830381865af4158015610415573d6000803e3d6000fd5b505050506040513d601f19601f820116820180604052508101906104399190610974565b9050919050565b600073__$45477943fbd49e251ac2e0bba445ca6b85$__63f47cbc3a60006040518263ffffffff1660e01b815260040161047a91906109a1565b602060405180830381865af4158015610497573d6000803e3d6000fd5b505050506040513d601f19601f820116820180604052508101906104bb91906108a4565b905090565b73__$45477943fbd49e251ac2e0bba445ca6b85$__630649a085600084846040518463ffffffff1660e01b81526004016104fc939291906109bc565b602060405180830381865af4158015610519573d6000803e3d6000fd5b505050506040513d601f19601f8201168201806040525081019061053d91906108a4565b505050565b600080fd5b600080fd5b6000819050919050565b61055f8161054c565b811461056a57600080fd5b50565b60008135905061057c81610556565b92915050565b600080fd5b600080fd5b600080fd5b60008083601f8401126105a7576105a6610582565b5b8235905067ffffffffffffffff8111156105c4576105c3610587565b5b6020830191508360208202830111156105e0576105df61058c565b5b9250929050565b600080600060408486031215610600576105ff610542565b5b600061060e8682870161056d565b935050602084013567ffffffffffffffff81111561062f5761062e610547565b5b61063b86828701610591565b92509250509250925092565b6106508161054c565b82525050565b600060408201905061066b6000830185610647565b6106786020830184610647565b9392505050565b60006020828403121561069557610694610542565b5b60006106a38482850161056d565b91505092915050565b60006020820190506106c16000830184610647565b92915050565b600080600080606085870312156106e1576106e0610542565b5b60006106ef8782880161056d565b94505060206107008782880161056d565b935050604085013567ffffffffffffffff81111561072157610720610547565b5b61072d87828801610591565b925092505092959194509250565b60008115159050919050565b6107508161073b565b82525050565b600060208201905061076b6000830184610747565b92915050565b6000806020838503121561078857610787610542565b5b600083013567ffffffffffffffff8111156107a6576107a5610547565b5b6107b285828601610591565b92509250509250929050565b8082525050565b6107ce8161054c565b82525050565b600082825260208201905092915050565b600080fd5b82818337505050565b60006107ff83856107d4565b93507f07ffffffffffffffffffffffffffffffffffffffffffffffffffffffffffffff831115610832576108316107e5565b5b6020830292506108438385846107ea565b82840190509392505050565b600060608201905061086460008301876107be565b61087160208301866107c5565b81810360408301526108848184866107f3565b905095945050505050565b60008151905061089e81610556565b92915050565b6000602082840312156108ba576108b9610542565b5b60006108c88482850161088f565b91505092915050565b60006040820190506108e660008301856107be565b6108f360208301846107c5565b9392505050565b600060808201905061090f60008301886107be565b61091c60208301876107c5565b61092960408301866107c5565b818103606083015261093c8184866107f3565b90509695505050505050565b6109518161073b565b811461095c57600080fd5b50565b60008151905061096e81610948565b92915050565b60006020828403121561098a57610989610542565b5b60006109988482850161095f565b91505092915050565b60006020820190506109b660008301846107be565b92915050565b60006040820190506109d160008301866107be565b81810360208301526109e48184866107f3565b905094935050505056fea26469706673582212207d592beca7bfa801dd285fa59861f09cbe090ed2616852a990384618f2c9ede664736f6c634300081a0033","linkReferences":{"src/LeanIMT.sol":{"LeanIMT":[{"start":443,"length":20},{"start":594,"length":20},{"start":723,"length":20},{"start":853,"length":20},{"start":991,"length":20},{"start":1123,"length":20},{"start":1249,"length":20}]}}},"methodIdentifiers":{"data()":"73d4a13a","has(uint256)":"cccf7a8e","indexOf(uint256)":"91ac7e65","insert(uint256)":"90b5561d","insertMany(uint256[])":"f6b8a114","remove(uint256,uint256[])":"3d50a486","root()":"ebf0c717","update(uint256,uint256,uint256[])":"a4e4725d"},"id":27}